:020000040800F2
:10000000080400209D060008AD060008AF060008A1
:10001000B1060008B3060008B5060008000000009D
:10002000000000000000000000000000B70600080B
:10003000B906000800000000BB060008950600088D
:10004000ED060008F1060008F5060008F9060008AC
:10005000FD06000801070008050700080907000859
:100060000D07000811070008150700081907000808
:100070001D070008210700082507000829070008B8
:100080002D07000831070008350700083907000868
:100090003D07000841070008450700084907000818
:1000A0004D070008510700085507000859070008C8
:1000B0005D07000861070008650700086907000878
:1000C0006D07000871070008750700087907000828
:1000D0007D070008810700088507000889070008D8
:1000E000AB0300089107000895070008F0B4002250
:1000F00000220022002200220022CB7813F00F03FE
:10010000CA78D20601D58A7813430A78120620D01D
:10011000066800241AE0CA78482A16D1A740076169
:1001200013E0012717FA04F50A882A40AA420CD1E5
:10013000A2000F259540AE4313FA02F23243160097
:10014000CA78282AE7D1A7404761641C082CE8D365
:1001500006600A88B2F5807F26DB4668002420E02E
:10016000012714F1080517FA05F50A882A40AA4262
:1001700016D1A2000F259540AE4313FA02F2324386
:100180001600CA78282A04D114F1080217FA02F2DC
:100190004261CA78482A03D114F1080297400761E6
:1001A000641C082CDCD34660F0BC704700228068D9
:1001B00089B2084201D0012000E00020C0B270479F
:1001C00089B20161704789B24161704710B4002261
:1001D0000F2311F00302D2B2920013FA02F20F4B76
:1001E0000C00E4B2A41053F8244034EA02020C00DC
:1001F000E4B2A41043F824200A00D2B2921053F8BB
:100200002240C0B211F00302D2B2920090402043CB
:10021000C9B2891043F8210010BC704708000140A2
:1002200080B53E49086850F0010008603C4A1368F8
:100230003C48034013600B683B4803400B60086870
:1002400030F480200860106830F4FE0010605FF425
:100250001F003649086000F005F85FF0006034497F
:10026000086001BD80B500F001F801BD82B000203A
:100270000190002000902949086850F480300860FF
:10028000086810F4003000900198401C019000981C
:10029000002803D10198B0F5A06FF1D10868800360
:1002A00002D50120009001E0002000900098012874
:1002B00031D12048026852F01002026002689208B0
:1002C00092000260026852F0020202601448026862
:1002D000026002680260026852F480620260026892
:1002E00032F47C120260026852F4E81202600A687A
:1002F00052F080720A600A689201FCD50168890890
:1003000089000160016851F002010160016811F08B
:100310000C010829FAD102B0704700000010024019
:10032000041002400000FFF8FFFFF6FE0810024034
:1003300008ED00E0002002401FB50121092000F077
:100340007FF84FF480442000ADF8040004208DF8BD
:10035000070003208DF8060001A93748FFF7C6FE05
:100360000E210120FFF732FF00208DF80C000294CF
:100370000C208DF80D0001208DF80E0002A800F071
:100380006FF84FF4E06000F0BFF828208DF800000F
:1003900000208DF8010000208DF8020001208DF86A
:1003A0000300684600F0B5F81FBD10B54FF480405B
:1003B00000F092F8002836D0002006E0491C0A0020
:1003C00092B2B2F5347FF9DB401C010089B2642996
:1003D00001DA0021F3E7184C4FF480412000FFF7C9
:1003E000E5FE00281BD14FF400412000FFF7E8FE96
:1003F00012490878002802D00020087001E001208E
:1004000008700878002805D04FF400412000FFF75D
:10041000D7FE04E04FF400412000FFF7D4FE4FF474
:10042000804000F063F84FF480410348FFF7BEFEC0
:100430000028F8D110BD0000000C0140040000208D
:10044000C9B2002904D005490A681043086004E0D5
:1004500002490A6832EA000008607047181002403A
:1004600030B40021234A1300817900292CD0214C7B
:10047000256801688D4325601F4C256801688D4300
:1004800025600179CB181C6801680C431C601B4B6C
:100490001C6801688C431C60194C256801688D43F9
:1004A00025604179102908D11A6801680A431A6049
:1004B00021680068014321600CE041798A181168C5
:1004C00000680143116005E00179CB1819680068E4
:1004D0008143196030BC704700210A490968014214
:1004E00001D0012000E00020C0B27047054908603B
:1004F000704700000004014004040140080401406A
:100500000C040140140401401A4908431A490860C8
:100510007047002100210F23C17800291ED0164901
:10052000096811F4E061D1F5E061090AD1F1040232
:10053000CB40417811FA02F281780B401A43120144
:100540000E490378CA540121027812F01F0291402B
:100550000B4A0078401142F8201009E0012102788E
:1005600012F01F029140074A0078401142F8201013
:10057000704700000000FA050CED00E000E400E028
:1005800000E100E080E100E030B4002513E050F825
:10059000042BD30744BFA9F101039A18091F0429AA
:1005A00042F8045BFAD213468C0744BF15809B1CAB
:1005B000C90748BF1D7050F8041B0029E7D130BCA3
:1005C0007047000080B501210820FFF739FF4FF484
:1005D0000040ADF8000003208DF8020014208DF8D3
:1005E000030069460148FFF781FD01BD000C014091
:1005F00010B5074979441831064C7C44163404E0A0
:100600000A68081D114488470146A142F8D110BD6F
:10061000080000001400000071FFFFFF0800000048
:10062000000000200000000000F00DF8002801D0BC
:10063000FFF7DEFFAFF300800020AFF3008000F093
:1006400004F800F00AF80120704780B5FFF7E8FDD4
:10065000FFF7B8FFFFF770FEFEE700F001B80000FB
:100660000746384600F002F8FBE7000080B5AFF31C
:100670000080024A11001820ABBEFBE726000200F2
:1006800003490868002802D00868401E08607047C7
:100690000000002080B5FFF7F3FF01BD014880474F
:1006A0000148004721020008BD0600087047FEE728
:1006B000FEE7FEE7FEE7704770477047AFF3008044
:1006C000AFF30080FFF7B0FFFFF7F0BFFFF7EFBF1A
:1006D000FFF7EEBFFFF7EDBFFFF7ECBFFFF7EBBF94
:1006E000FFF7EABFFFF7E9BFFFF7D4BFFFF7FEBF91
:1006F000FFF7FEBFFFF7FEBFFFF7FEBFFFF7FEBF2E
:10070000FFF7FEBFFFF7FEBFFFF7FEBFFFF7FEBF1D
:10071000FFF7FEBFFFF7FEBFFFF7FEBFFFF7FEBF0D
:10072000FFF7FEBFFFF7FEBFFFF7FEBFFFF7FEBFFD
:10073000FFF7FEBFFFF7FEBFFFF7FEBFFFF7FEBFED
:10074000FFF7FEBFFFF7FEBFFFF7FEBFFFF7FEBFDD
:10075000FFF7FEBFFFF7FEBFFFF7FEBFFFF7FEBFCD
:10076000FFF7FEBFFFF7FEBFFFF7FEBFFFF7FEBFBD
:10077000FFF7FEBFFFF7FEBFFFF7FEBFFFF7FEBFAD
:10078000FFF7FEBFFFF7FEBFFFF7FEBFFFF70DBE8F
:08079000FFF7FEBFFFF7FEBFFB
:04000005080006BD2C
:00000001FF
