:020000040800F2
:1000000008040020BD040008CD040008CF04000847
:10001000D1040008D3040008D50400080000000043
:10002000000000000000000000000000D7040008ED
:10003000D904000800000000DB0400087103000878
:100040000D05000811050008150500081905000830
:100050001D050008210500082505000829050008E0
:100060002D05000831050008350500083905000890
:100070003D05000841050008450500084905000840
:100080004D050008510500085505000859050008F0
:100090005D050008610500086505000869050008A0
:1000A0006D05000871050008750500087905000850
:1000B0007D05000881050008850500088905000800
:1000C0008D050008910500089505000899050008B0
:1000D0009D050008A1050008A5050008A905000860
:1000E000AD050008B1050008B505000880B53E491A
:1000F000086850F0010008603C4A13683C4803401F
:1001000013600B683B4803400B60086830F48020A4
:100110000860106830F4FE0010605FF41F0036497C
:10012000086000F005F85FF000603449086001BD28
:1001300080B500F001F801BD82B0002001900020E0
:1001400000902949086850F480300860086810F46D
:10015000003000900198401C01900098002803D1C5
:100160000198B0F5A06FF1D10868800302D5012095
:10017000009001E0002000900098012831D1204833
:10018000026852F010020260026892089200026057
:10019000026852F0020202601448026802600268BB
:1001A0000260026852F480620260026832F47C12DB
:1001B0000260026852F4E81202600A6852F080722B
:1001C0000A600A689201FCD501688908890001600B
:1001D000016851F002010160016811F00C01082969
:1001E000FAD102B070470000001002400410024033
:1001F0000000FFF8FFFFF6FE0810024008ED00E0E7
:1002000000200240F0B4002200220022002200223E
:100210000022CB7813F00F03CA78D20601D58A7872
:1002200013430A78120620D0066800241AE0CA7820
:10023000482A16D1A740076113E0012717FA04F5F1
:100240000A882A40AA420CD1A2000F259540AE434D
:1002500013FA02F232431600CA78282AE7D1A740DF
:100260004761641C082CE8D306600A88B2F5807FD9
:1002700026DB4668002420E0012714F1080517FA60
:1002800005F50A882A40AA4216D1A2000F259540FA
:10029000AE4313FA02F232431600CA78282A04D178
:1002A00014F1080217FA02F24261CA78482A03D10F
:1002B00014F1080297400761641C082CDCD34660E7
:1002C000F0BC704789B20161704789B241617047E3
:1002D000020052B2002A04D409011E4A40B211544D
:1002E00007E009011C4A40B210F00F00104400F86A
:1002F000041C704780B5411EB1F1807F01D30120FD
:100300000EE0401E154908600F215FF0FF30FFF737
:10031000DFFF002012490860072012490860002012
:1003200002BD80B51048FFF7E5FF002800D0FEE7CA
:1003300001BD0E490868002802D00868401E086008
:10034000704701B409490098086008680028FCD18A
:1003500001B0704700E400E018ED00E014E000E0B8
:1003600018E000E010E000E040190100000000206B
:1003700080B5FFF7DEFF01BD10B5FFF7B7FEFFF751
:10038000D0FF00F017F80A4C4FF400412000FFF7AF
:1003900099FF4FF47A70FFF7D4FF4FF4004120002B
:1003A000FFF793FF4FF47A70FFF7CBFFEBE700BF47
:1003B000000C014080B50121082000F011F84FF435
:1003C0000040ADF8000003208DF8020010208DF8E9
:1003D000030069460148FFF715FF01BD000C01400D
:1003E000C9B2002904D005490A681043086004E036
:1003F00002490A6832EA000008607047181002409B
:1004000030B4002513E050F8042BD30744BFA9F102
:1004100001039A18091F042942F8045BFAD2134613
:100420008C0744BF15809B1CC90748BF1D7050F83E
:10043000041B0029E7D130BC7047000010B5074904
:1004400079441831064C7C44163404E00A68081DCF
:10045000114488470146A142F8D110BD08000000B0
:10046000140000009DFFFFFF0400000000000020BA
:100470000000000000F00DF8002801D0FFF7DEFFBB
:10048000AFF300800020AFF30080FFF775FF00F0AE
:1004900002F80120704700F001B800000746384616
:1004A00000F002F8FBE7000080B5AFF30080024ADD
:1004B00011001820ABBEFBE7260002000148804770
:1004C00001480047ED000008DD0400087047FEE722
:1004D000FEE7FEE7FEE7704770477047AFF3008026
:1004E000AFF30080FFF7C6FFFFF7F0BFFFF7EFBFE6
:1004F000FFF7EEBFFFF7EDBFFFF7ECBFFFF7EBBF76
:10050000FFF7EABFFFF7E9BFFFF732BFFFF7FEBF14
:10051000FFF7FEBFFFF7FEBFFFF7FEBFFFF7FEBF0F
:10052000FFF7FEBFFFF7FEBFFFF7FEBFFFF7FEBFFF
:10053000FFF7FEBFFFF7FEBFFFF7FEBFFFF7FEBFEF
:10054000FFF7FEBFFFF7FEBFFFF7FEBFFFF7FEBFDF
:10055000FFF7FEBFFFF7FEBFFFF7FEBFFFF7FEBFCF
:10056000FFF7FEBFFFF7FEBFFFF7FEBFFFF7FEBFBF
:10057000FFF7FEBFFFF7FEBFFFF7FEBFFFF7FEBFAF
:10058000FFF7FEBFFFF7FEBFFFF7FEBFFFF7FEBF9F
:10059000FFF7FEBFFFF7FEBFFFF7FEBFFFF7FEBF8F
:1005A000FFF7FEBFFFF7FEBFFFF7FEBFFFF7FEBF7F
:0805B000FFF7FEBFFFF7FEBFDD
:04000005080004DD0E
:00000001FF
